S01F00002F6465636F6465722F6275696C642F6D617837383030302E737265634D
S3151000E00000000220B9010110EDFF0010F701011008
S3151000E010F9010110FB010110FD01011000000000C3
S3151000E020000000000000000000000000FF010110C9
S3151000E0300102011000000000030201100502011088
S3151000E040090201100B0201100D0201100F0201103E
S3151000E050110201101302011015020110170201100E
S3151000E060190201101B0201101D0201101F020110DE
S3151000E07021020110230201102502011027020110AE
S3151000E080290201102B0201102D0201102F0201107E
S3151000E090310201103302011035020110370201104E
S3151000E0A071FF001079FF00103D0201103F020110B0
S3151000E0B041020110430201104502011047020110EE
S3151000E0C0490201104B0201104D0201104F020110BE
S3151000E0D0510201105302011055020110570201108E
S3151000E0E0590201105B0201105D0201105F0201105E
S3151000E0F0610201106302011065020110670201102E
S3151000E100690201106B0201106D0201106F020110FD
S3151000E11071020110730201107502011077020110CD
S3151000E120790201107B0201107D0201107F0201109D
S3151000E130810201108302011085020110870201106D
S3151000E140890201108B0201108D0201108F0201103D
S3151000E150910201109302011095020110970201100D
S3151000E160990201109B0201109D0201109F020110DD
S3151000E170A1020110A3020110A5020110A7020110AD
S3151000E180A9020110AB020110AD020110AF0201107D
S3151000E190B1020110B3020110B5020110B70201104D
S3151000E1A0B9020110BB020110BD020110BF0201101D
S3151000E1B0C1020110C3020110C5020110C7020110ED
S3151000E1C0C9020110CB020110CD020110CF020110BD
S3151000E1D0D1020110D3020110D5020110D70201108D
S3151000E1E00000000000000000000000000000000019
S3151000E1F00000000000000000000000000000000009
S3151000E20000488047B90101100348044B834202D0ED
S3151000E210034B03B118477047C40B0020C40B0020F2
S3151000E220000000000548064B1B1AD90F01EBA3018D
S3151000E230491002D0034B03B118477047C40B002096
S3151000E240C40B00200000000010B5064C237843B91B
S3151000E250FFF7DAFF044B13B10448AFF30080012334
S3151000E260237010BD000C00200000000010A5011046
S3151000E27008B5044B1BB104490448AFF30080BDE850
S3151000E2800840CFE700000000040C002010A5011084
S3151000E290F0B5ADF2744D0DF13706002326F00F06DA
S3151000E2A00F461546014600931022304601F032FE05
S3151000E2B078BB38687968BA68FB6806ACA446ACE8DF
S3151000E2C00F0002A92246304601F032FE05F10C0776
S3151000E2D02B1F02A953F8040F51F8042B9F4282EA10
S3151000E2E000021A60F6D10AA911F8013D0133DBB21A
S3151000E2F00B700BB98C42F7D1224602A9304601F0B9
S3151000E30017FED5E90423DDE9020142404B40C5E979
S3151000E31004230DF2744DF0BD2DE9F04FADF2C44D4E
S3151000E3200DF18707002327F00F0783460D46904609
S3151000E3306F49009310223846CDE90233CDE90433F4
S3151000E34001F0E8FD30B14FF0FF3948460DF2C44DEB
S3151000E350BDE8F08F06AE814602AA3146384601F076
S3151000E360E7FD0EAC0AA802462146A6464B4612F811
S3151000E37001CD43EA4C03B2420EF8013D4FEADC13DD
S3151000E380F5D192F90030002B03DAC37B83F08703B3
S3151000E390C37312AE002311F8012D43EA42038142E2
S3151000E3A006F8013D4FEAD213F5D190F90030002B53
S3151000E3B003DAE37B83F08703E37315F00F0A6ED05D
S3151000E3C00F352E0900231AAD711EC5E90033C5E9B4
S3151000E3D002330BEB011152462846CDE91233CDE933
S3151000E3E0143303F07DFB802305F80A3020462946B6
S3151000E3F012AA16AC51F8043B50F804CB83EA0C036E
S3151000E40042F8043BA242F5D1002339490093102269
S3151000E410384601F07FFD002895D1012EC4E9000091
S3151000E420C4E902001AD00BF1100A0BEB0616AAF17A
S3151000E43010022046294652F8043B50F804CB5245A8
S3151000E44083EA0C0341F8043BF5D12A4621463846A7
S3151000E4500AF1100A01F06CFD5645E8D112A82146C2
S3151000E4602A460DF1780C51F8043B50F8046B7340B2
S3151000E47042F8043B6245F6D12A463846214601F059
S3151000E48057FD0FCCC8F800004846C8F80410C8F865
S3151000E4900820C8F80C300DF2C44DBDE8F08FDBF83B
S3151000E4A01820DBF81410DBF81C300546DBF81000DA
S3151000E4B012AE0FC60BF1100A12AA55F8041B1368F8
S3151000E4C0A54283EA010342F8043BF6D1002308492A
S3151000E4D000931022384601F01DFD00287FF433AF5B
S3151000E4E016ACC4E90000C4E9020002261AAD9CE786
S3151000E4F02C0C00202DE9F04305465B4F5B4891B08C
S3151000E5000C46294604F036F93B68986803F060F823
S3151000E5105F2D75D9E3682568666800932269A3683C
S3151000E520534801922946324604F024F93B6898680C
S3151000E53003F04EF8242104AA04F1140095FA85F884
S3151000E54004F13809FFF7E8FE002840F084804946B8
S3151000E55004A8102203F03EFA00286CD1454803F0B7
S3151000E5606FFF3B68986803F033F8082108AA0DEB93
S3151000E5700100CDE90256FFF7CFFE0646002862D10C
S3151000E5803D4803F05DFF3B68986803F021F81820BA
S3151000E59003F096FA0546002839D0636DA06CE16C3D
S3151000E5A0226DCDF83C80AC46ACE80F00A06DE16D55
S3151000E5B00E96ACE803002A460CA908A8CDE90C660D
S3151000E5C0FFF766FE082003F07BFA044695E8030081
S3151000E5D084E80300284603F07BFA284803F030FF4E
S3151000E5E03B68986802F0F4FF08224420214600F0A8
S3151000E5F05DFA204603F06CFA304611B0BDE8F083A0
S3151000E6003B681F48DB682D22012103F08DFD002099
S3151000E61001F096FD012001F093FD022001F090FD1E
S3151000E620002001F06DFD17491722452000F03EFA33
S3151000E6304FF0FF36E0E73B681348DB683B220121C9
S3151000E64003F072FDE3E73B681048DB6834220121D2
S3151000E65003F06AFDDBE73B680D48DB6831220121D8
S3151000E66003F062FDD3E700BF10000020EC7B011021
S3151000E6705C7C0110147D0110787D0110A47D0110C1
S3151000E6802C7C0110C87D0110D87C0110407D011032
S3151000E690A47C011030B51B4BABB00022154601927D
S3151000E6A003F1C0041146187A01EB81020DF1A80C92
S3151000E6B00CEB820290B1A2F1A40EDD6842F8A05CC8
S3151000E6C0A2F19C0C5D691A69CEF80820CEF80C50A0
S3151000E6D0DA699D690131CCE90252054618339C422C
S3151000E6E0E1D165B101EB810292000432019192B23F
S3151000E6F001A94C2000F0DAF900202BB030BD04221D
S3151000E700F6E700BF500C002038B54C69002C44D0F9
S3151000E7102B4D00232A46107AD8B1D068844202F1D4
S3151000E720180216D00133082BF5D1002001F008FD90
S3151000E730012001F005FD022001F002FD002001F08C
S3151000E740DFFC20491A22452000F0B0F94FF0FF30C7
S3151000E75038BD03EB430205EBC2024868D4600124BE
S3151000E76014728C68C2E90404013303EB430305EB0E
S3151000E770C302C868096945F833001348516000F0B0
S3151000E78057FA0F491048C82200F056FA00221146CF
S3151000E790532000F08BF9002038BD204601F0D0FC44
S3151000E7A0012001F0CDFC022001F0CAFC204601F048
S3151000E7B0A7FC06492622452000F078F9C6E700BFD7
S3151000E7C0500C00202C7E011000C00710047E011092
S3151000E7D038B5274C274D00F013FA2748C822214692
S3151000E7E000F028FA2368AB4211D100F02BFA00286A
S3151000E7F030DB224B22484FF0AB34C3E90044C3E967
S3151000E80002442022BDE83840CD2102F0E5BD1D4965
S3151000E8101D22472000F04AF94FF0000C4FF0FF3050
S3151000E8204FF0FF312346256004F1C002C3E904010D
S3151000E83083F808C0E3E906019342F7D10E4800F0C9
S3151000E840F7F90B490C48C82200F0F6F900F0FAF96E
S3151000E8500028CEDA002001F073FC012001F070FCD4
S3151000E860022001F06DFC002001F04AFCFEE700BF1B
S3151000E870500C0020EFBEADDE00C007101C0C0020AF
S3151000E8802C0C0020487E011030B5ADF20C4DFFF770
S3151000E8909FFF4749474C484D1022472000F006F984
S3151000E8A006222146472000F001F9002001F048FC1D
S3151000E8B0012001F045FC022001F042FC012001F08C
S3151000E8C01FFC0DF1060202A90DF1050000F02CF94E
S3151000E8D00346002083421BDB9DF805304C2B4FF07E
S3151000E8E000004ED0532B38D0442B22D0002001F0FC
S3151000E8F027FC012001F024FC022001F021FC00205D
S3151000E90001F0FEFB2D491022452000F0CFF8C7E795
S3151000E91001F016FC012001F013FC022001F010FC9E
S3151000E920002001F0EDFB26492022452000F0BEF81C
S3151000E930B6E701F005FC012001F002FC022001F00F
S3151000E940FFFB002001F0DCFB022001F0D9FBBDF833
S3151000E950060002A9FFF7CEFDA2E701F0F1FB0120A8
S3151000E96001F0EEFB022001F0EBFB002001F0C8FBEA
S3151000E970012001F0C5FBBDF8060002A9FFF7C4FE91
S3151000E9808EE701F0DDFB012001F0DAFB022001F039
S3151000E990D7FB012001F0B4FB022001F0B1FB2322CA
S3151000E9A02946472000F082F8FFF774FE78E700BF8B
S3151000E9B0687E01107C7E0110E07D0110A87E01109A
S3151000E9C0847E011081B32DE9F047DFF8608082B0B4
S3151000E9D00F46451E002444F2251902AE00F048F9F0
S3151000E9E000281ADB0134BC4205F8010F18D0E3B237
S3151000E9F0002BF3D1CDF804900DF1040A1AF8010B8F
S3151000EA0000F03CF9B245F9D1D8F80030986802F018
S3151000EA10DFFD00F02DF90028E4DA02B0BDE8F0873A
S3151000EA20002002B0BDE8F0870020704710000020DB
S3151000EA3000B583B00023019300F01AF9C0B225285F
S3151000EA408DF80400F8D100F013F9022103460DF1F8
S3151000EA5006008DF80530FFF7B5FF9DF80500413823
S3151000EA6018BF4FF0FF30C0B203B05DF804FB00BF13
S3151000EA70F8B591B117460E46451E0024013415F817
S3151000EA80010F00F0FBF8B442E3B206D0002BF5D12B
S3151000EA90002FF3D0FFF7CCFFF0E7034B1B68986805
S3151000EAA002F096FD0020F8BD100000202DE9F0417F
S3151000EAB082B025230646174688468DF804308DF811
S3151000EAC00500ADF8062001AC02AD14F8010B00F0FC
S3151000EAD0D5F8AC42F9D1134B1B68986802F078FD53
S3151000EAE0412E02D0472E04D197B9002002B0BDE8BE
S3151000EAF0F081FFF79DFF002FF7D0012239464046DF
S3151000EB00FFF7B6FFFFF794FF002002B0BDE8F081D3
S3151000EB10002239464046FFF7ABFF002002B0BDE8A1
S3151000EB20F08100BF10000020F0B583B000230093E1
S3151000EB30002848D00E461546044600F099F8C0B293
S3151000EB4025288DF80000F8D100F092F802218DF8F2
S3151000EB5001000DEB0100FFF735FF9DF80130237022
S3151000EB6015B1BDF802202A80412B02D1002003B036
S3151000EB70F0BD44F22513019301AC02AD14F8010B5C
S3151000EB8000F07CF8A542F9D1104F3B68986802F066
S3151000EB901FFDBDF802100029E8D026B13046FFF758
S3151000EBA011FF00280FDB44F22513019301AC02ADCF
S3151000EBB014F8010B00F062F8A542F9D13B68986889
S3151000EBC002F006FDD2E74FF0FF30D0E7100000202C
S3151000EBD0094A536AD90703D5516A21F001015162D6
S3151000EBE09B0700D47047044A0448536A23F0020373
S3151000EBF0536203F025BC00BF00900240BC7E01109A
S3151000EC0008B50849172001F0DDFC074B4FF4000248
S3151000EC101A604FF4407001F019FEBDE80840034831
S3151000EC2002F040B8D1EB001000E100E000A0024075
S3151000EC300BF062BC01F008BE0B4611461A4601F0F5
S3151000EC4001BE00BF10B5084802224FF4E13102F0B0
S3151000EC5081F8044608B9204610BD2146034803F042
S3151000EC6089FD204610BD00BF00200440E47E01103F
S3151000EC70014802F067B900BF00200440024A5368F9
S3151000EC801B06FCD410627047002004402DE9F04F9B
S3151000EC9087B00D684F688E68CC68CDE9003203687E
S3151000ECA02DBA5D4043683FBA5F40836836BA5E400E
S3151000ECB0C368F9B2F2B224BA5C4001F54071EA4B6E
S3151000ECC002F540725FFA84FE53F8218053F8221041
S3151000ECD00EF5407E2A0E53F82EE053F822205FFAE6
S3151000ECE085FC82EA0E020CF5407C4FEA176E53F84B
S3151000ECF02CC053F82EE08EEA0C0E4FEA166C53F821
S3151000ED002CC08CEA080C4FEA146853F8288088EA5D
S3151000ED100101C7F30748C7F3072707F500770291E4
S3151000ED2053F827B00169C6F30747C6F3072606F559
S3151000ED30007608F5807853F8269053F828A0C4F387
S3151000ED400746C4F3072407F5807704F500744A4094
S3151000ED50416953F8278053F8247006F58076C5F379
S3151000ED600744C5F307258EEA010E05F5007581697E
S3151000ED7053F8266053F825508CEA010C04F580747C
S3151000ED808CEA060C8CEA050C53F82440C5690299E6
S3151000ED906940614081EA0B01CCB28EEA080E04F597
S3151000EDA040748EEA070E53F82450CEF3074404F548
S3151000EDB0807482EA0A0253F824705FFA8EF404F51E
S3151000EDC0407482EA090203945FFA8CF404F54079E0
S3151000EDD0140ED6B2C2F3074BC2F3072253F82440DF
S3151000EDE0CDF8149002F500720492CCF30728026A4B
S3151000EDF008F500786C4054404FEA1E697C4006F5D1
S3151000EE00407653F8287053F82660039ACEF3072EEF
S3151000EE1067400EF5007A53F82940DDF8149053F840
S3151000EE202AA04FEA1C6ECCF3074C0CF58075744083
S3151000EE304FEA116C53F82E6053F822E00295029AAD
S3151000EE4053F82CC086EA0E0653F829E0C1F307459D
S3151000EE50C1F3072101F500718CEA0E0C53F822E07C
S3151000EE60049A53F8219053F82210426A05F58075DA
S3151000EE705440826A53F8258056400BF5807B86EA0B
S3151000EE8008064E40C16A53F82B508CEA010C8CEAE6
S3151000EE90050C8CEA0A0C5FFA8CF284EA0E0402F571
S3151000EEA0407284EA090453F82210C4F3074202F5AB
S3151000EEB0807253F822A0C6F3072202F5007253F8A7
S3151000EEC022500295FAB202F5407253F82250C6F358
S3151000EED0074202F5807253F822200392CCF30722E0
S3151000EEE002F5007253F822E0CDF810E0E2B202F516
S3151000EEF040725FFA86FE53F822B0CCF3074202F551
S3151000EF0080724FEA1C6C53F8229053F82C20C7F3EA
S3151000EF10072C0CF5007C360E53F82C8053F826601F
S3151000EF204FEA176C86EA0B0653F82CB0C7F307475F
S3151000EF308BEA010B07F58071270E0EF5407E53F80C
S3151000EF40277087EA050C056B8BEA050B029D8BEA89
S3151000EF500A076F40456B8CEA050C039D8CEA050C7D
S3151000EF60049D8CEA050C856B6E4053F82E50C4F345
S3151000EF70072482EA050E04F5007453F82150C16B7C
S3151000EF8053F824208EEA010E8EEA050E8EEA020E42
S3151000EF905FFA8EF202F5407286EA090653F82210DD
S3151000EFA0FAB202F5407286EA080653F822805FFA32
S3151000EFB08CF202F5407253F82250F2B202F540720A
S3151000EFC053F822403A0E53F8222051404FEA1C6261
S3151000EFD053F8222082EA08024FEA166853F828806E
S3151000EFE088EA05054FEA1E6853F8288088EA040463
S3151000EFF0CCF30748CCF3072C08F580780CF5007C89
S3151000F00053F828B0029453F82C400394C6F3074CD7
S3151000F0100CF5807CC6F3072606F5007653F82C907F
S3151000F020046C53F826A0CEF3074CCEF3072E0EF53C
S3151000F03000766140446C53F826800CF5807CC7F34B
S3151000F0400746C7F30727624007F50077846C53F825
S3151000F0502CE053F82770654085EA0E0506F5807694
S3151000F0607D40029CC76C01E0B491011053F82660F4
S3151000F0707C40039F74407C40E6B282EA090206F5A2
S3151000F080407682EA080253F82670C2F3074606F560
S3151000F090807681EA0B0153F826C0CDF808C0C5F377
S3151000F0A0074C0CF5807B5FFA82FC81EA0A01C5F3F6
S3151000F0B007260CF540795FFA85FC2D0E04950D0E8A
S3151000F0C006F5007653F8255053F826E0CDF80CE0F7
S3151000F0D0CEB26F4006F54076150E53F8266053F8FB
S3151000F0E0255053F829907540066D7740029E77405B
S3151000F0F0039E7740466D754053F82B60DDF810B0CF
S3151000F1004FEA1468C4F3074EC4F307240CF5407A8B
S3151000F110754004F5007453F82B60C1F3074CC2F325
S3151000F1200722C1F3072186EA090902F5007253F88E
S3151000F130286053F82A8053F824400EF5807E01F596
S3151000F140007153F82EA00CF5807C85EA040E53F856
S3151000F150214053F82210826D86EA080653F82C8057
S3151000F16089EA020CC26D564086EA08064E40F2B293
S3151000F17002F540728CEA0A0C53F82280FAB202F5B4
S3151000F18040728CEA040C53F822505FFA8EF202F5A4
S3151000F190407253F822405FFA8CF202F5407253F82F
S3151000F1A022103A0E53F8222082EA08024FEA1E680D
S3151000F1B053F8288088EA05054FEA1C6853F828801A
S3151000F1C088EA04044FEA166853F8288088EA010191
S3151000F1D0CEF30748CEF3072E0EF5007E029153F8B4
S3151000F1E02E100391CCF3074ECCF3072C0CF5007CB4
S3151000F1F0016E53F82CA0C6F3074CC6F3072608F584
S3151000F200807806F500764A40416E53F828B053F8D8
S3151000F21026800EF5807E0CF5807CC7F30746C7F373
S3151000F22007274D4007F50077816E53F82E9053F857
S3151000F2302CE053F827704C4084EA0E0406F58076CD
S3151000F2407C400299C76E53F826607940039F71403F
S3151000F250794082EA0B0285EA090582EA0A0285EA02
S3151000F26008055FFA81F8170E08F540785FFA82FEF6
S3151000F270E6B253F8279053F828700EF5407E5FFAE1
S3151000F28085FC06F540760CF5407C53F826B053F80D
S3151000F2902C8089EA07072E0E53F82E9053F8266015
S3151000F2A0C5F3074EC5F307254FEA146C0EF5807E9D
S3151000F2B005F5007553F82EA053F82CC053F825E029
S3151000F2C0C4F30745C4F3072404F500748CEA080C4C
S3151000F2D04FEA116886EA090653F8249053F82880F5
S3151000F2E0C1F30744C1F3072105F5807504F5807451
S3151000F2F001F5007188EA0B0B53F8258053F824505A
S3151000F30053F82140C2F30741C2F3072202F50072F7
S3151000F31001F5807153F822200292026F53F82110E2
S3151000F3205740426F564086EA08066640846F029A36
S3151000F3308CEA040CC46F8CEA050C8BEA04048CEA84
S3151000F340020C4C4072465440E2B202F5407287EA13
S3151000F3500A0753F82250C6F3074202F5807287EA6D
S3151000F360090753F822200292CCF3072202F5007205
S3151000F370C7F3074953F822100391FAB202F5407207
S3151000F38009F5807953F82210CCF3074202F5807202
S3151000F39053F822E0CDF810E0C4F3072202F500720C
S3151000F3A05FFA8CFE53F82280CDF81480F2B202F583
S3151000F3B040724FEA1C6C53F8222053F82CC08CEA8A
S3151000F3C002024FEA176CC7F3072753F82CB08BEAE3
S3151000F3D0050B350E07F5007C53F82550029F85EA7C
S3151000F3E0010AD0F880508BEA050B039D8BEA0707BC
S3151000F3F06F40D0F884508AEA050A049D4FEA1468D3
S3151000F4008AEA050AC4F30744059D53F82880C6F313
S3151000F410072604F5807406F500718AEA0506D0F809
S3151000F420885053F8244053F821100EF5407E6A4058
S3151000F43053F82E5082EA040E53F82C2053F8294024
S3151000F4408EEA020ED0F88C2088EA050585EA020CB1
S3151000F4508CEA040C8CEA010C5FFA8CF202F540720D
S3151000F4604FEA176853F8221053F82880FAB202F5BB
S3151000F470407288EA01014FEA166853F8225053F891
S3151000F4802880F2B202F5407288EA05054FEA1E6836
S3151000F49053F8224053F828805FFA8EF288EA040463
S3151000F4A002F540724FEA1C6853F8222053F8288060
S3151000F4B088EA0202C6F30748C6F3072606F5007661
S3151000F4C0029253F826200392CEF3074606F580766D
S3151000F4D0CEF3072E53F82690CCF3074608F580781E
S3151000F4E00EF5007E06F5807653F828B053F82EA058
S3151000F4F053F826E0D0F890205140D0F89420C7F366
S3151000F5000746C7F30727554007F50077D0F8982028
S3151000F51053F82770544006F5807684EA0E04029A52
S3151000F52053F826607C40D0F89C70CCF3072C7A40B8
S3151000F5300CF5007C7240009E53F82C80039F81EAE4
S3151000F5400B0185EA0905052E81EA0A0185EA0805F7
S3151000F55082EA070240F2ED81D6B206F54076C5F38F
S3151000F560074E53F82670CEB206F540760EF5807E1D
S3151000F57053F826C0EEB206F5407653F82680E6B26A
S3151000F58006F5407653F826B00E0E53F826607740EF
S3151000F5902E0EC5F3072553F8266005F5007586EA85
S3151000F5A00C064FEA146C53F825A053F82CC0C4F37C
S3151000F5B00745C4F3072404F500748CEA080C4FEAD7
S3151000F5C0126853F8249053F82880C2F30744C2F304
S3151000F5D0072205F5807502F5007288EA0B0B53F8C1
S3151000F5E02E8053F825E053F82250C1F3074202F556
S3151000F5F0807204F5807453F822200292D0F8A0206D
S3151000F60053F824405740D0F8A420564086EA0E06F8
S3151000F610C1F30721754001F50071D0F8A86053F8C1
S3151000F6202110029A8CEA060C8CEA040C8CEA010C66
S3151000F630D0F8AC108BEA0106564052465640F2B24C
S3151000F64002F54072CCF3074453F82210C5F3074273
S3151000F65002F5807204F5807453F822B053F82440F2
S3151000F6600394CCF30722C6F3072402F5007287EA47
S3151000F670080704F5007487EA090753F8222053F89F
S3151000F68024E00292ECB2FAB2CDF810E002F5407224
S3151000F6905FFA8CFE04F540744FEA1C6C53F8222076
S3151000F6A053F8244053F82CC08CEA04044FEA176C24
S3151000F6B04FEA166853F82CC053F828808CEA0101DB
S3151000F6C04FEA156CC6F3074653F82CA08AEA020ACD
S3151000F6D0D0F8B0205140029A81EA0B015140D0F87F
S3151000F6E0B4208AEA020A039A8AEA020A049AC5F33D
S3151000F6F0072506F5807605F5007CC7F307498AEAE3
S3151000F7000205C7F30727D0F8B82053F8266007F587
S3151000F71000770EF5407E5440744053F8276053F836
S3151000F7202E2053F82C7009F580797440D0F8BC60FF
S3151000F73053F829E088EA02027240009E82EA0E021D
S3151000F740062E82EA070200F0F480D6B206F540765D
S3151000F750C5F3074E53F82670CEB206F540760EF571
S3151000F760807E53F826C0EEB206F5407653F8268012
S3151000F770E6B206F5407653F826B00E0E53F826601C
S3151000F78077402E0EC5F3072553F8266005F500754C
S3151000F79086EA0C064FEA146C53F825A053F82CC0D1
S3151000F7A0C4F30745C4F3072404F500748CEA080C67
S3151000F7B04FEA126853F8249053F82880C2F307448E
S3151000F7C0C2F3072205F5807502F5007288EA0B0B65
S3151000F7D053F82E8053F825E053F82250C1F3074210
S3151000F7E002F5807204F5807453F822200292D0F844
S3151000F7F0C02053F824405740D0F8C420564086EA1B
S3151000F8000E06C1F30721754001F50071D0F8C860E6
S3151000F81053F82110029A8CEA060C8CEA040C8CEA36
S3151000F820010CD0F8CC108BEA0106564052465640D1
S3151000F830F2B202F54072CCF3074453F82210C5F326
S3151000F840074202F5807204F5807453F822B053F81B
S3151000F85024400394CCF30722C6F3072402F5007262
S3151000F86087EA080704F5007487EA090753F8222087
S3151000F87053F824E00292ECB2FAB2CDF810E002F599
S3151000F88040725FFA8CFE04F540744FEA1C6C53F814
S3151000F890222053F8244053F82CC08CEA04044FEA73
S3151000F8A0176C4FEA166853F82CC053F828808CEA68
S3151000F8B001014FEA156CC6F3074653F82CA08AEAE5
S3151000F8C0020AD0F8D0205140029A81EA0B01514029
S3151000F8D0D0F8D4208AEA020A039A8AEA020A049A1B
S3151000F8E0C5F3072506F5807605F5007CC7F30749AD
S3151000F8F08AEA0205C7F30727D0F8D82053F82660FE
S3151000F90007F500770EF5407E5440744053F8276093
S3151000F91053F82E2053F82C7009F580797440D0F8DE
S3151000F920DC6053F829E088EA0202724082EA0E028D
S3151000F9307A40D6B206F580764FEA146913F826C0D7
S3151000F940C5F3074606F5407609F5007953F82660A3
S3151000F95053F8299006F47F080E0E06F500765FFA26
S3151000F96084FA53F8266006F07F4648EA0608CEB2B7
S3151000F97006F580760AF5807A13F82670C4F30746E2
S3151000F98006F54076C4F3072453F8266006F47F0E76
S3151000F9902E0E06F5007609F07F4953F8266006F01C
S3151000F9A07F464EEA060EEEB2C5F307254FEA126BF6
S3151000F9B053F8255005F47F450295C2F3074505F522
S3151000F9C04075C2F3072253F8255053F8222005F448
S3151000F9D07F0545EA090553F8249013F82A40C1F328
S3151000F9E0074A0BF5007B06F58076C1F307210AF569
S3151000F9F0407A13F8266053F8211053F82AA053F8CA
S3151000FA002B3002F47F4B009A0AF47F0A03F07F43EF
S3151000FA104AEA030300EB421A520109F47F4982585D
S3151000FA208CEA020CDAF804205740DAF8082056401F
S3151000FA30DAF80C205440029A01F47F418CEA090C42
S3151000FA4087EA0B074E40544001998CEA080C87EA66
S3151000FA500E076E405C409CFA8CFC3FBA36BA24BA4C
S3151000FA60C1F800C04F608E60CC6007B0BDE8F08F63
S3151000FA70002800F048822DE9F04FA2F11006102E52
S3151000FA8085B0174600F23C82C24DF540EC0740F1B6
S3151000FA9037829608B51D88460446C0F8F420C0F88B
S3151000FAA0F050002B78D0D3F800E0D3F804C09D684E
S3151000FAB0DB68C0F80431C0F8F8E0C0F8FCC0C0F844
S3151000FAC0005102F00DF8254604EB86062346186809
S3151000FAD000BA43F8040B9E42F9D141463A462046F5
S3151000FAE001F0FEFF2346196809BA43F8041B9E422B
S3151000FAF0F9D1182F00F0BC81202F00F03F81DFF8DC
S3151000FB0098E22668E168A54BD4E9017C0EF1280835
S3151000FB10204600E01030CAB24FEA116909F5807923
S3151000FB2053F8222013F8299002F47F4242EA090280
S3151000FB30C1F3074909F5007953F8299009F07F496F
S3151000FB4082EA0902C1F3072909F5407953F8299089
S3151000FB5009F47F0982EA09025EF8049B82EA090227
S3151000FB60564077408CEA070C81EA0C01F045C0E953
S3151000FB700467C0E906C1CDD10E9A0020012A8DF87E
S3151000FB800C008DF80D008DF80E008DF80F000ED0BC
S3151000FB90002005B0BDE8F08FC0F8F830C0F8FC3092
S3151000FBA0C0F80031C0F8043101F09AFF8BE7D4F8A1
S3151000FBB0F0205FEA820C1DD004EB021221460F687A
S3151000FBC016680E6017604F6856684E6057608E68EC
S3151000FBD097688F609660CE68D768CF600430D6601D
S3151000FBE0ACEB0006B04201F11001A2F11002E6D30F
S3151000FBF0D4F8F0200021012A8DF80C108DF80D1084
S3151000FC008DF80E108DF80F10C2D9654A01272E698E
S3151000FC105FFA86FCC6F307490CF5807C310E09F5B0
S3151000FC20807913F82CC013F829A001F58071C6F35A
S3151000FC30072606F5807613F8211013F8269052F849
S3151000FC4021800CF5407C0AF58076D5E9050152F83D
S3151000FC502CC052F8266009F5007988EA0C0888EA63
S3151000FC6006065FFA80FC52F829800CF5807C86EA3D
S3151000FC7008064FEA10692E6113F82CC0C0F3074628
S3151000FC8009F5807906F58076C0F3072013F829A0C8
S3151000FC9013F826600CF5407C00F5807052F82CE0C5
S3151000FCA013F8209052F82A0006F5807680EA0E00A6
S3151000FCB009F5007E52F8268052F82EE05FFA81FC94
S3151000FCC080EA0800C1F3074680EA0E000CF5807C36
S3151000FCD0686106F58076080E13F82CC013F82660B6
S3151000FCE0C1F3072100F5807001F5807113F820002B
S3151000FCF013F8211052F820000CF5407C06F580769A
S3151000FD0052F82CC052F8266001F5007180EA0C00FA
S3151000FD1052F821107040EE694840310E01F580719D
S3151000FD20A86113F82100F1B201F58071013713F8BB
S3151000FD3021C052F820100CF5407C103552F82C00DA
S3151000FD40C6F3074C0CF5807C4840C6F3072101F535
S3151000FD50807113F82CC013F821600CF5807106F52C
S3151000FD60007652F82110414052F826004140E960D1
S3151000FD70D4F8F0108F42FFF44AAF09E7DFF8248079
S3151000FD80A3680193D4E900ECE068044B08F11C0960
S3151000FD90224636E001010100B4A10110B491011010
S3151000FDA0B4810110B0A10110C0F3074707F54077E1
S3151000FDB0566953F8277007F47F0AC0F3072753F8DC
S3151000FDC0277007F47F474AEA070A070E07F50077F8
S3151000FDD053F8277007F07F4BC7B207F5807713F8F3
S3151000FDE027704BEA070B17698AEA070A8AEA0B0794
S3151000FDF0176377409669576377407940C2E90E7169
S3151000FE002032D16958F804AF019ECFB24FEA116B78
S3151000FE100BF5807B53F8277013F82BB007F47F4748
S3151000FE2047EA0B0787EA0A07C1F3074A0AF5007A79
S3151000FE30C14553F82AA00AF07F4A87EA0A07C1F398
S3151000FE40072A0AF5407A53F82AA00AF47F0A87EAA5
S3151000FE500A078EEA070E8CEA0E0C86EA0C0680EA72
S3151000FE600600C2E908ECC2E90A6001969CD183E655
S3151000FE70DFF89880D4F800C06668254BD4E9027E76
S3151000FE8008F12009204606E001698EEA01014A4080
S3151000FE90C0E90A121830426958F804AFD1B24FEAD5
S3151000FEA0126B0BF5807B53F8211013F82BB001F46D
S3151000FEB07F4141EA0B0181EA0A01C2F3074A0AF5BA
S3151000FEC0007AC14553F82AA00AF07F4A81EA0A014E
S3151000FED0C2F3072A0AF5407A53F82AA00AF47F0AD1
S3151000FEE081EA0A018CEA010C86EA0C0687EA060703
S3151000FEF08EEA070EC0E906C6C0E9087EC4D13BE605
S3151000FF006FF0AC0045E66FF0AC007047B0A1011081
S3151000FF10B491011010B4019C28B1F02A03D80194B1
S3151000FF2010BCFFF7A5BD6FF0AC0010BC704700BF4A
S3151000FF3090B108B513460A461946D0F8F0305B085A
S3151000FF4003F1FF3CBCF1060F03D8FEF79FFE00201D
S3151000FF5008BD6FF0E10008BD6FF0AC00704700BF40
S3151000FF6008B50346014802F005FCFEE7047F0110C0
S3151000FF70002000F0EDBD00BF012000F0E9BD00BF7C
S3151000FF8010B5002000F066FB012000F063FB402056
S3151000FF9000F060FB104B022218684FF4E13100F0BC
S3151000FFA0D9FE041E0CDB00F0EBF858B900F088F807
S3151000FFB0044660B9094B0A484322DA6000F0C8FAD1
S3151000FFC0204610BD074908486522FFF7C9FF0549B5
S3151000FFD005486A22FFF7C4FF0000002000440040D5
S3151000FFE0400D0300207F0110687F011000BF70478D
S3151000FFF04FF0FF30704700BF4FF0FF30704700BF23
S315100100004FF0FF30704700BF4FF0FF30704700BF11
S315100100102DE9F04100BB002A1746054617DD124EA1
S315100100200C4601E0AF4214D0304600F08BFFC1B24E
S315100100302170304600F088FFA04614F8013B0D2BC5
S3151001004005F10105EED10A2388F800302846BDE8EE
S31510010050F0813846BDE8F08101F05EFB09230360AB
S315100100604FF0FF30F3E700BF00200440F8B5431E00
S31510010070012B1CD8002A174617DD531E0F4E4C1E96
S31510010080CD1804E0304600F05FFFAC420DD014F8F5
S31510010090011F0A29F6D10D21304600F055FF2178AE
S315100100A0304600F051FFAC42F1D13846F8BD01F0AF
S315100100B033FB092303604FF0FF30F8BD00200440E5
S315100100C0F8B50D4B1F68A7B100250C4C2E46D4E987
S315100100D0000100F00FFD204600F0EAFB0135002873
S315100100E018BF6FF00706AF4204F10C04EFD130468A
S315100100F0F8BD3E463046F8BDDCA10110E0A1011065
S315100101000B4B1B68834210B504460BD9094B04EB04
S31510010110440403EB840253F824005168BDE81040EF
S3151001012000F0FEBC044905482F22FFF719FFEDE741
S31510010130DCA10110E0A10110707F0110A47F011054
S315100101400B4B1B68834210B504460BD9094B04EBC4
S31510010150440403EB840253F824005168BDE81040AF
S3151001016000F0C8BC044905483A22FFF7F9FEEDE74D
S31510010170DCA10110E0A10110707F0110A47F011014
S31510010180F8B50B4B1F6887B100240A4D2646284641
S3151001019000F08EFB0134002818BF6FF00706BC4231
S315100101A005F10C05F3D13046F8BD3E463046F8BD93
S315100101B004A2011008A20110474885464748804706
S315100101C080B94749474A484B9B1A03DD043BC85837
S315100101D0D050FBDC4549464A00209142BCBF41F84C
S315100101E0040BFAE743488047434880474348804712
S315100101F0FFF7FEFFFEE7FEE7FEE7FEE7FEE7FEE797
S31510010200FEE7FEE7FEE7FEE7FEE7FEE7FEE7FEE7AF
S31510010210FEE7FEE7FEE7FEE7FEE7FEE7FEE7FEE79F
S31510010220FEE7FEE7FEE7FEE7FEE7FEE7FEE7FEE78F
S31510010230FEE7FEE7FEE7FEE7FEE7FEE7FEE7FEE77F
S31510010240FEE7FEE7FEE7FEE7FEE7FEE7FEE7FEE76F
S31510010250FEE7FEE7FEE7FEE7FEE7FEE7FEE7FEE75F
S31510010260FEE7FEE7FEE7FEE7FEE7FEE7FEE7FEE74F
S31510010270FEE7FEE7FEE7FEE7FEE7FEE7FEE7FEE73F
S31510010280FEE7FEE7FEE7FEE7FEE7FEE7FEE7FEE72F
S31510010290FEE7FEE7FEE7FEE7FEE7FEE7FEE7FEE71F
S315100102A0FEE7FEE7FEE7FEE7FEE7FEE7FEE7FEE70F
S315100102B0FEE7FEE7FEE7FEE7FEE7FEE7FEE7FEE7FF
S315100102C0FEE7FEE7FEE7FEE7FEE7FEE7FEE7FEE7EF
S315100102D0FEE7FEE7FEE7FEE700000220B903011084
S315100102E0D8A5011000000020C40B0020000C00202E
S315100102F03C170020BD030110C51C011089E8001030
S315100103000B4A08B50346106828B10A4903448B42C3
S3151001031007D8136008BD08480649106003448B428C
S31510010320F7D901F0F9F90C2303604FF0FF3008BD3E
S31510010330180D002000F00120401700206FF010006A
S31510010340704700BF6FF01000704700BF4FF0804339
S315100103509B6803F46063B3F5206F1FD012D9B3F510
S31510010360406F18D0104A1149B3F5606F08BF0A469D
S315100103704FF080430E499B68C3F3821322FA03F3AD
S315100103800B6070476BB1084947F23052B3F5C06F35
S3151001039018BF0A46ECE74FF40042E9E74FF4E102D1
S315100103A0E6E7044AE4E700BF00E1F505C068780412
S315100103B03C170020008793030020704710B50A4CA4
S315100103C00A4BA3600A4800F06BFCD4F8883043F45A
S315100103D07003C4F88830BFF34F8FBFF36F8FFFF7E9
S315100103E0B5FFFFF7CDFD10BD00ED00E000E00010F8
S315100103F000A0024038B54FF0E02318499C691A69EC
S3151001040022F480320A601A69D2071FD46FF07F4432
S3151001041005225C614FF080759C611A61104B114A7F
S3151001042019680023A0FB010107F068FA0E4BB0FB17
S31510010430F5F205FB120084421A600AD81A680132D5
S315100104401A602544094B281A186038BD5D690135B3
S31510010450E4E7064B201A186038BD00BF200D0020B6
S315100104603C17002040420F0004000020240D0020FC
S3151001047010B50C4C0C4B22681960002A0EDC08B919
S31510010480002010BDFFF7B6FF2368002BF8DD4FF0F3
S31510010490E022136943F002031361F1E76FF00500DF
S315100104A010BD00BF040000201C0D0020F8B5174C2C
S315100104B02368002B1EDB26682EBB154B4FF0E0255B
S315100104C01B68AA699A421ED8124F3B685BB16FF03E
S315100104D00F009847104B3E601A682A614FF0FF33A0
S315100104E023600020F8BD0C4A4FF0FF3312682A61D1
S315100104F02360F6E7074C2368002BF2D000209847BB
S3151001050000232360EDE76FF00500F8BD040000201D
S31510010510240D00201C0D0020200D002010B5094CC3
S31510010520236823B16FF00F00984700232360064A12
S31510010530064B10684FF0E0214FF0FF3208611A6048
S3151001054010BD00BF1C0D0020200D0020040000204E
S3151001055038B5184C2268002A29DC08B9002038BDA4
S31510010560FFF748FF4FF0E02202E01369DB031AD4CC
S315100105702368002BF9DC104B1A684FF0E0218B69C8
S315100105809342FCD80D4D2B6823B16FF00F0098479D
S3151001059000232B600A4B4FF0E022196811614FF0CE
S315100105A0FF332360DAE72368013B2360E0E76FF04E
S315100105B0050038BD04000020240D00201C0D00206C
S315100105C0200D0020F8B50F4E0F4BB2689A42044623
S315100105D00D4600F1100707D018460C494FF4F0727A
S315100105E001F07EFA0346B060002C43F8275007DB72
S315100105F0074A6109012304F01F04A34042F8213080
S31510010600F8BD00BF00ED00E0000E002000E0001074
S3151001061000E100E03F2808D90D4A4038D168C0B240
S31510010620012383400B43D36070471F284FF080424C
S3151001063007D92038916CC0B2012383400B439364D0
S315100106407047516A012383400B435362704700BFC1
S31510010650000008403F2809D90E494038CB68C0B27E
S315100106600122824023EA0203CB6070471F284FF014
S31510010670804108D920388B6CC0B20122824023EA0E
S3151001068002038B6470474B6A0122824023EA0203FC
S315100106904B6270470000084010B507280AD8DFE8FA
S315100106A000F00C09092333475B04BDE810403648B6
S315100106B000F0FEB86FF0020010BD4FF0804400212B
S315100106C0A36843F48023A3604FF47A70FFF7D0FE3A
S315100106D003E0FFF7EBFE063052D1A3685901F8D5B6
S315100106E0FFF71CFF002010BD00214FF47A70FFF7B1
S315100106F0BFFE4FF0804403E0FFF7D8FE06303FD12E
S31510010700A3689A00ECD4F7E74FF080440021A36860
S3151001071043F40023A3604FF47A70FFF7A9FE03E0B8
S31510010720FFF7C4FE06302BD1A3681B01F8D5D7E716
S315100107304FF080440021A36843F48013A3604FF463
S315100107407A70FFF795FE03E0FFF7B0FE063017D17A
S31510010750A368D800C4D4F7E74FF080440021A368FA
S3151001076043F40033A3604FF47A70FFF781FE03E080
S31510010770FFF79CFE063003D1A3689B01B0D4F7E7BF
S315100107806FF0090010BD00BF50A201103F2809D912
S3151001079040380F49C0B2012282408A608B681A42E2
S315100107A0FCD170471F280AD92038C0B201224FF058
S315100107B0804182404A644B6C1A42FCD17047012237
S315100107C04FF0804182404A604B681A42FCD1704713
S315100107D00000084082072CD100F17043B3F5002FB9
S315100107E084460A4622D3A0F18453B3F5804F20D212
S315100107F043F6F073034003F5002300B50E4883B0AA
S31510010800614609F075FE4FF08042136843F04003CC
S31510010810136013685B06FCD44FF08052074B1268C5
S3151001082001921B68019303B05DF804FB044B03406E
S31510010830E3E76FF0020070470090024000200010BD
S31510010840F0FF070009F05CBE09F05EBE00F000B8CB
S3151001085010F4407306D0054A11684A6A1343002002
S315100108604B6270476FF00200704700BF080000200E
S31510010870C10710B5044608D4A2070BD463070ED4DA
S315100108802046BDE8104000F0E7BC0020FFF7E2FE6D
S31510010890A207F3D50120FFF7DDFE6307F0D540204F
S315100108A0FFF7D8FE2046BDE8104000F0D5BC00BFCA
S315100108B0F8B58C4B05689D4204464BD003F5805321
S315100108C09D4214D0884B9D4200F0A28003F500731F
S315100108D09D422CD04FF0FF3301209840FFF7C8FFFF
S315100108E0A17A6268284600F055F950B1F8BD022088
S315100108F0FFF7BEFFA17A6268284600F04BF900287F
S31510010900F4D17A4B2268217A9A421AD06268284623
S3151001091000F056F90028E9D1637A042B00F2DE8043
S31510010920DFE813F0A200AD00BC00C400D40008201B
S31510010930FFF79EFFA37A53B16C4B2268217A9A4234
S31510010940E4D101296AD002290AD000297DD06FF09D
S315100109501000F8BD0120FFF78BFFA17A6268C1E78D
S31510010960636863484FEA430C1A01066A0CF0020CDD
S3151001097002F0200242EA0C02324302628268C3F399
S31510010980400343EA0C0313438360637A042BDED8D6
S31510010990DFE803F0291E031E030063685448DA00DA
S315100109A0066A02F0100203F0010C42EA0C0226EA72
S315100109B0020202629A005B0102F0040203F0400394
S315100109C01343026A22EA03030362D1B90846F8BD4A
S315100109D047486368076ADA0003F0010602F010025D
S315100109E03E433243E5E76268414893005201066A85
S315100109F003F0040302F04002134333430362002958
S31510010A00E4D06268E17A2846BDE8F84000F00EB9F4
S31510010A100420FFF72DFFA17A626863E76368344803
S31510010A204FEA430C1A01066A0CF0020C02F020027E
S31510010A3042EA0C02324302628268C3F3400343EA7C
S31510010A400C0322EA030383609FE7636828484FEA91
S31510010A50430C1A01066A0CF0020C02F0200242EA5B
S31510010A600C0226EA0202E6E72B6E626823EA02030B
S31510010A702B666B6E23EA02036B66217AA5E72A6E53
S31510010A8063681A432A666A6E22EA03026A66D5F811
S31510010A90B8201343C5F8B830217A96E72A6E6368F1
S31510010AA022EA03022A666A6E1A43EFE72B6E626820
S31510010AB013432B666B6E23EA02036B66D5F8B830C7
S31510010AC023EA0203C5F8B830217A7EE72B6E6268F5
S31510010AD023EA02032B666B6E1343EEE76FF00200F7
S31510010AE0F8BD00BF00800040000408400006084021
S31510010AF0006C0040084A904201D000F043B8074804
S31510010B0010B4046ACA0001F00101214302F0100376
S31510010B100B4310BC0362704700060840006C00408E
S31510010B20094A904201D000F02FB810B4074CCA0000
S31510010B30206A02F0100201F0010142EA010320EAE3
S31510010B400303236210BC704700060840006C004086
S31510010B5000F094BB034A904201D000F017B8024A44
S31510010B60D16170470006084000680040034B984267
S31510010B7001D000F00DB8024BD86970470006084045
S31510010B8000680040C1617047016270478164704717
S31510010B90006C704759B1012906D1D0F8C030134302
S31510010BA0C0F8C030002070476FF002007047D0F8CF
S31510010BB0C03023EA0203C0F8C0300020704700BFDE
S31510010BC0036B13430363426005292CD8DFE801F058
S31510010BD00A12191F2503C0F888208267C26682602F
S31510010BE000207047426142600267C267C0F88820E0
S31510010BF000207047026142600267C267C0F8882010
S31510010C00EEE7C0F88820C26702678260E8E7C0F89D
S31510010C108820C267C2668260E2E7C0F888208267D0
S31510010C2002678260DCE76FF002007047032929D85A
S31510010C30DFE801F0280F021CD0F8B03023EA0203D6
S31510010C40C0F8B030D0F8B4301343C0F8B430002037
S31510010C507047D0F8B0301343C0F8B030D0F8B43084
S31510010C6023EA0203C0F8B43000207047D0F8B03040
S31510010C701343C0F8B030D0F8B4301343C0F8B430D1
S31510010C8000207047D0F8B03023EA0203C0F8B03024
S31510010C90D0F8B43023EA0203C0F8B430002070470C
S31510010CA000F002B800F018B8D0F80031012223F094
S31510010CB00103C0F80031C0F80027D0F80031DA037B
S31510010CC0FBD5D0F8003143F00103C0F80031D0F85C
S31510010CD00031DB03FBD57047D0F8003123F0010357
S31510010CE0C0F80031704700BF08B5164B984210D0B6
S31510010CF0154B984214D0154B984218D0144B984264
S31510010D001CD14420FFF742FD4420FFF783FC00204D
S31510010D1008BD0B20FFF73AFD0920FFF77BFCF6E72C
S31510010D200C20FFF733FD0A20FFF774FCEFE71C20B8
S31510010D30FFF72CFD2120FFF76DFCE8E76FF00200AD
S31510010D4008BD00BF002004400030044000400440AC
S31510010D500014084070B504460E461546FFF7C4FF49
S31510010D60A0BB022D1DD0042D02D10620FFF794FC45
S31510010D701E4B9C421BD01E4B9C4228D01D4B9C42A5
S31510010D802CD01D4B9C421FD11C48FFF791FD4420CE
S31510010D90FFF760FC2A4631462046BDE8704000F058
S31510010DA0F5B80520FFF778FC104B9C42E3D11448A7
S31510010DB0FFF77EFD0920FFF74DFC2A4631462046F6
S31510010DC0BDE8704000F0E2B86FF0020070BD0D484A
S31510010DD0FFF76EFD0A20FFF73DFCDBE70A48FFF738
S31510010DE067FD2120FFF736FCD4E700BF0020044041
S31510010DF000300440004004400014084020A20110B5
S31510010E0044A2011038A201102CA20110314B9842B4
S31510010E1010B5044616D003F58053984212D003F547
S31510010E20805398420ED003F57533984207D10523A6
S31510010E30022A436145D0042A13D0002A41D06FF00B
S31510010E40020010BD042AFAD0204600F00FF900283E
S31510010E50F7DD236843F40043236023681B03FCD5A5
S31510010E6010BD02684FF480331A4302600068B3FB69
S31510010E70F1F340F4001001FB03F2B1F5166F206097
S31510010E80C2F5803216D900206061ABB90123124A2E
S31510010E901361106800F44030B0F5803F05D0136837
S31510010EA013F4403FCBD14FF4E1000B4B1B69B0FB60
S31510010EB0F3F0CCE701206061B2EB510FE7D90133B2
S31510010EC0E5E74FF4E103B3FBF1F301FB03F2C2F5DE
S31510010ED0E102DAE70020044000140840124B984260
S31510010EE01CD003F58053984218D003F580539842CD
S31510010EF014D003F57533984212D1036803F44033C5
S31510010F00B3F5803F05D0036813F4403F08D14FF481
S31510010F10E103064A1069B3FBF0F0704700F0DEB842
S31510010F206FF00200704700BF002004400014084013
S31510010F3000F000B900F00EB900F01EB900F062B968
S31510010F4000F068B900F008B800F012B800F06CB9FA
S31510010F5000F06EB900F072B910B504462046FFF7DD
S31510010F60F5FF0028FAD02046BDE81040FFF7E6BF8E
S31510010F7038B504460D462046FFF7EAFF0028FAD099
S31510010F8029462046BDE83840FFF7DABFF8B5324C9E
S31510010F90A04205460F4616460FD0304B98420CD04C
S31510010FA003F58053984208D003F57533984204D05F
S31510010FB02B492C483E22FEF7D3FF01212846FFF785
S31510010FC0C9FF044608B12046F8BD08212846FFF797
S31510010FD0AFFF04460028F6D101462846FFF7ACFFBD
S31510010FE004460028EFD101462846FFF7A3FF044621
S31510010FF00028E8D1324639462846FFF707FF002870
S3151001100022DB154B9D4221D003F580539D421FD003
S3151001101003F580539D421DD003F575339D4214BFD0
S315100110204FF0FF33032303EB83030F4A9B0003F1B6
S315100110300806D018B71800214FF0FF3595517D607D
S31510011040D15041600174BEE70446BCE72346EAE786
S315100110500123E8E70223E6E70020044000300440BC
S31510011060B47F011000800110E00F00200523012A32
S3151001107010B4436123D0022A10D0E2B9154B1A6875
S315100110805208B2FBF1F301FB132213B1B2EB510F6C
S3151001109000D9013310BC0361FFF720BF04684FF478
S315100110A0E10344F40034B3FBF1F301FB03F2C2F59F
S315100110B0E1020460E9E76FF0020010BC70470468B2
S315100110C0054AB2FBF1F344F48034046001FB1322A8
S315100110D0DBE700BF3C170020C0687804036803F4FF
S315100110E04033B3F5803F17D0036813F4403F0CD05B
S315100110F0036803F44033B3F5003F08BF4FF4E1032F
S315100111000FD10069B3FBF0F07047084B00691B68FB
S315100111105B08B3FBF0F07047054B0069B3FBF0F0C9
S31510011120704703686FF00200704700BF3C1700203C
S31510011130C068780405390329024607D8036823F4E1
S31510011140406343EA81230020136070476FF0020069
S31510011150704700BF51B1012905D1036843F480538B
S315100111600360002070476FF002007047036823F494
S31510011170805303600020704704293FD8DFE801F04F
S31510011180111724310300036843F010030360036849
S3151001119043F020030360036843F04003036000201B
S315100111A07047036823F0100303600020704703683B
S315100111B043F010030360036823F020030360036800
S315100111C023F040030360EAE7036843F0100303606A
S315100111D0036823F020030360036843F040030360B0
S315100111E0DDE7036843F010030360036843F020034F
S315100111F00360036823F040030360D0E76FF0020039
S31510011200704700BF4368DB0654BF006A6FF00C00DD
S31510011210704700BF0246406810F080000CBF116293
S315100112206FF00B00704700BF4068C0F30320704792
S315100112304068C0F30330C0F1080070474B1E072BFE
S31510011240024606D8036823F00F03194300201160E4
S3151001125070476FF00200704710B5064C217831B90E
S3151001126005484FF4007200F0B7F8012323700020EF
S3151001127010BD00BF30100020341200200328F8B52D
S3151001128007461ED8124B53F820502846FFF76EFC1E
S31510011290044601462846FFF75DFC8CB10D4E0E4DF6
S315100112A006EBC71605EBC715E30703D52B680BB17C
S315100112B030689847640806F1040605F10405F3D170
S315100112C0F8BD064906484E22FEF74AFE0025DCE720
S315100112D05CA201103410002034120020308001105D
S315100112E080800110000000000000000000000000D6
S315100112F000000000000000000000000000000000D7
S3151001130030B490F800F020F007016FF0000C10F0E7
S31510011310070491F820F040F048804FF000046FF078
S315100113200700D1E9002391F840F000F1080082FA94
S315100113304CF2A4FA8CF283FA4CF3A2FA8CF34BBB5F
S31510011340D1E9022382FA4CF200F10800A4FA8CF2D8
S3151001135083FA4CF3A2FA8CF3E3B9D1E9042382FAA6
S315100113604CF200F10800A4FA8CF283FA4CF3A2FABB
S315100113708CF37BB9D1E9062301F1200182FA4CF2F3
S3151001138000F10800A4FA8CF283FA4CF3A2FA8CF35A
S31510011390002BC6D0002A04BF04301A4612BAB2FA7C
S315100113A082F200EBD20030BC7047D1E9002304F081
S315100113B00305C4F100004FEAC50514F0040F91F8B6
S315100113C040F00CFA05F562EA05021CBF63EA050353
S315100113D062464FF00004AAE7830730B547D0541E82
S315100113E0002A3ED0CAB2034601E0013C39D303F8C4
S315100113F0012B9D07F9D1032C2CD9CDB205EB05256F
S315100114000F2C05EB054535D9A4F1100222F00F0C6E
S3151001141003F1100EE6444FEA121C1A46C2E90055B2
S31510011420C2E9025510327245F8D10CF1010214F0DD
S315100114300C0F03EB021204F00F0C13D0ACF10403E2
S3151001144023F003030433134442F8045B9342FBD1A4
S315100114500CF003042CB1C9B21C4403F8011BA342BE
S31510011460FBD130BD64461346002CF4D1F9E703468F
S315100114701446C0E71A46A446E0E700BFB1F90C20AE
S31510011480F8B516070C46074649D4496842F4006375
S315100114900029A3815FDDA56A002D3ED0002112F43B
S315100114A080523E683960E16961D101233846A84707
S315100114B0451C02466BD0B4F90C30A56AE169580790
S315100114C005D56368D21A236B0BB1E36BD21A0023CD
S315100114D03846A847411C4CD13968B4F90C301D293E
S315100114E03FD82F4ACA40D2073BD52269226023F43E
S315100114F00062A281DD044FF00002626001D500296D
S3151001150043D0216B3E6041B104F14003994202D0B0
S31510011510384600F063F9002323630020F8BD0E69F5
S31510011520002EFAD00D680E6092070CBF4B6900238E
S31510011530AD1B8B600CE0D4F824C0E1692B46324612
S315100115403846E047B0F1000CA5EB0C05664406DD04
S31510011550002DF0DCE1E7E16B00299CDCDDE7B4F955
S315100115600C3043F04003A3814FF0FF30F8BD226DDC
S31510011570A5E7B4F90C302269226023F40062A28136
S31510011580DB044FF000026260BBD52065B9E73B680A
S31510011590002B90D01D2B01D0162BE0D13E60BCE75D
S315100115A00100402010B5044682B008B1436B53B117
S315100115B0B1F90C0008B902B010BD204602B0BDE861
S315100115C01040FFF75BBF019100F0DCFE0199EFE7D8
S315100115D0A0B138B50C4B1D6804460DB16B6B4BB100
S315100115E0B4F90C0000B938BD21462846BDE838408B
S315100115F0FFF744BF284600F0C5FEF1E7034A044948
S31510011600044801F003B900BF100000203801002082
S31510011610A51501101800002088420ED98B18834297
S315100116200BD900EB020C002A6ED0624613F801CDDD
S3151001163002F801CD9942F9D170470F2A0FD8034606
S3151001164002F1FF3C002A5FD00CF1010C013B8C44E6
S3151001165011F8012B03F8012F6145F9D1704740EAC2
S3151001166001039B0751D1A2F1100370B501F1200CB2
S3151001167023F00F0501F1100E00F11004AC441B0903
S315100116805EF8105C44F8105C5EF80C5C44F80C5C77
S315100116905EF8085C44F8085C5EF8045C44F8045C87
S315100116A00EF1100EE64504F11004E9D1013312F0E2
S315100116B00C0F01EB031102F00F0400EB031328D0FA
S315100116C0043C24F003064FEA940C1E441C1F8E465C
S315100116D05EF8045B44F8045FB442F9D10CF10104DD
S315100116E002F0030203EB840301EB840102F1FF3CD8
S315100116F04AB10CF1010C013B8C4411F8012B03F892
S31510011700012F6145F9D170BD704702F1FF3C0346C7
S315100117109AE72246EAE700BF014B1868704700BFF7
S31510011720100000202DE9F84306460820894600F0EE
S3151001173071FADFF89C800546304600F035FDD8F881
S3151001174008305F6827F00307A7F11104A4EB090419
S315100117502C44B4FBF5F4013C05FB04F4A54208DC6A
S315100117600021304601F01AF8D8F808303B44984267
S3151001177005D0304600F01AFD0020BDE8F88361421D
S31510011780304601F00BF801300FD0124AD8F8083064
S315100117903F1B47F001075F60136830461B1B136040
S315100117A000F004FD0120BDE8F8830021304600F069
S315100117B0F5FFD8F80820831A0F2BDADD43F0010361
S315100117C05360054B03491B68C01A0860D1E700BF77
S315100117D048010020741500205005002000297CD0F6
S315100117E0F8B50C46064600F0DFFC54F8043C764F7B
S315100117F0A4F1080523F001016818D7F808C042685A
S31510011800844522F0030200F08380DB07426000EB7F
S31510011810020C33D454F8084CDCF804302D1B214447
S31510011820AC6807F1080C644503F0010364D0D5F8E0
S315100118300CE0C4F80CE0CEF80840002B00F08180D3
S3151001184041F001036B600160B1F5007F22D2786827
S31510011850CB080122490901338A40024357F8331054
S315100118607A6007EBC302083AC5E9021247F833500A
S31510011870CD603046BDE8F84000F098BCDCF8043085
S31510011880DB072BD541F00103B1F5007F44F8043C89
S315100118900160DCD3B1F5206F4FEA512353D28B0986
S315100118A003F1390003F13802C300F818FB58083860
S315100118B0984203D161E09B68984204D05A6822F09D
S315100118C003028A42F7D8D868C5E902308560DD601F
S315100118D03046BDE8F84000F069BC7047114407F185
S315100118E0080C836863453FD0C268DA60936041F0A3
S315100118F001036B606950A7E7002B5FD10A44D0E959
S315100119000213CB60996042F001036B60AA50B0E7F5
S315100119100A44D90707D454F8083CED1A1A44D5E9F4
S315100119200213CB60996042F001036B60274BBD60D7
S315100119301B6893429DD8264B30461968FFF7F2FE75
S3151001194097E71144CDE7142B08D9542B1DD80B0B4F
S3151001195003F16F0003F16E02C300A6E703F15C0009
S3151001196003F15B02C300A0E741F00103C7E9045587
S31510011970C5E902CC6B6069507BE779689210012446
S3151001198004FA02F20A437A609EE7B3F5AA7F06D8F3
S31510011990CB0B03F1780003F17702C30085E740F220
S315100119A05452934206D88B0C03F17D0003F17C024D
S315100119B0C3007AE74FF47E737E2276E741F0010386
S315100119C06B60016055E700BF4801002054050020F7
S315100119D070150020032A30B415D941EA0004A40772
S315100119E084460B4604D0541E0FE0043A032A08D944
S315100119F01946604653F8044B5CF8045BA542F4D0D3
S31510011A00F1E760461946541E7AB1431E013902198F
S31510011A1001E09A4209D013F8010F11F801CF604580
S31510011A20F7D0A0EB0C0030BC7047002030BC7047DB
S31510011A3070B539B106460C4608B1436B83B3B4F998
S31510011A400C3013B90025284670BD21463046FFF7E4
S31510011A5015FDE36A054633B1E1693046984700281A
S31510011A60B8BF4FF0FF35A3891B061CD4216B41B1BA
S31510011A7004F14003994202D03046FFF7AFFE00232E
S31510011A802363616C21B13046FFF7A8FE002363641E
S31510011A9000F088FC0023A38100F086FC284670BD67
S31510011AA000F070FCCBE721693046FFF797FEDDE7C2
S31510011AB0024B01461868FFF7BBBF00BF100000209C
S31510011AC0024B0146186802F021BA00BF100000202F
S31510011AD0024B01461868FFF781BE00BF10000020B7
S31510011AE0844641EA000313F003036DD1403A41D312
S31510011AF051F8043B40F8043B51F8043B40F8043BD1
S31510011B0051F8043B40F8043B51F8043B40F8043BC0
S31510011B1051F8043B40F8043B51F8043B40F8043BB0
S31510011B2051F8043B40F8043B51F8043B40F8043BA0
S31510011B3051F8043B40F8043B51F8043B40F8043B90
S31510011B4051F8043B40F8043B51F8043B40F8043B80
S31510011B5051F8043B40F8043B51F8043B40F8043B70
S31510011B6051F8043B40F8043B51F8043B40F8043B60
S31510011B70403ABDD2303211D351F8043B40F8043B00
S31510011B8051F8043B40F8043B51F8043B40F8043B40
S31510011B9051F8043B40F8043B103AEDD20C3205D310
S31510011BA051F8043B40F8043B043AF9D2043208D008
S31510011BB0D2071CBF11F8013B00F8013B01D30B887A
S31510011BC003806046704700BF082A13D38B078DD058
S31510011BD010F003038AD0C3F10403D21ADB071CBF2A
S31510011BE011F8013B00F8013B80D331F8023B20F894
S31510011BF0023B7BE7043AD9D3013A11F8013B00F8CD
S31510011C00013BF9D20B7803704B7843708B78837054
S31510011C1060467047082802D14FF48050704708B5C6
S31510011C20FFF77AFD162303604FF0FF3008BD00BFA2
S31510011C3010B50C46B1F90E1002F052F9002803DB6B
S31510011C40236D0344236510BDA38923F48053A38117
S31510011C5010BD00BF002070472DE9F0410C46B1F9C7
S31510011C600C101F46CB05054616460BD421F48051A0
S31510011C70A1813B46B4F90E1032462846BDE8F04123
S31510011C8000F0EAB9B4F90E100223002203F026FC83
S31510011C90B4F90C10EAE700BF10B50C46B1F90E10F5
S31510011CA003F01CFCB4F90C30421C0EBF23F4805314
S31510011CB043F480532065A38110BD00BFB1F90E1006
S31510011CC000F07EBD70B50F4B0F4DAB42A3EB050671
S31510011CD007D0B610002455F8043B01349847A642A4
S31510011CE0F9D808F0F9FB094D094B5E1BAB424FEAD7
S31510011CF0A60606D0002455F8043B01349847A6429F
S31510011D00F9D870BDB80B0020B80B0020B80B002015
S31510011D10C00B00202DE9F84F1646002900F09680D9
S31510011D200C46804606F10B0500F03EFA54F8041CE9
S31510011D30162DA4F1080921F0030758D81025AE4233
S31510011D4058D8AF4260DABE4B9A6809EB070C624568
S31510011D50DCF8040000F0908020F0010363445B6816
S31510011D60DB0768D420F003003B189D4247DDCB0703
S31510011D7012D454F8083CA9EB030BDBF8043023F01A
S31510011D800302104400EB070A554540F3F68007EBB2
S31510011D90020A554540F3CC803146404602F0B6F86A
S31510011DA00646002800F0208154F8043C23F0010374
S31510011DB04B44A0F10802934200F0B4803A1F242A42
S31510011DC000F2D780132A00F2A28003462246116838
S31510011DD019605168596092689A6021464046FFF72A
S31510011DE0FDFC404600F0E2F93046BDE8F88F35F0CB
S31510011DF00705A4D50C23C8F80030002618E01F46A5
S31510011E00DCE90223D3609A60D9F804307A1B0F2AD1
S31510011E1003F0010309EB07001DD83B43C9F8043051
S31510011E20436843F001034360404600F0BFF926467C
S31510011E303046BDE8F88FC907AED454F8083CA9EB73
S31510011E40030BDBF8043023F00302A0E7BDE8F84FDB
S31510011E50114602F05BB809EB05012B4342F0010272
S31510011E60C9F804304A60436843F0010343600831FE
S31510011E704046FFF7B3FCD7E720F00300C21905F17E
S31510011E80100C624580F29180CA0785D454F8082C4B
S31510011E90A9EB020BDBF8042022F00302104400EB3D
S31510011EA0070AD4453FF773AF5E46DBF80C1056F8B8
S31510011EB0080F3A1F242AC160886000F2AE80132AE7
S31510011EC040F2A9802168CBF808106168CBF80C1094
S31510011ED01B2A00F2A88008340BF110022168116048
S31510011EE061685160A16891600BEB0501AAEB0502CF
S31510011EF042F0010299604A60DBF8043003F00103F5
S31510011F002B434046CBF8043000F050F990E7236894
S31510011F100360636843601B2A3CD804F1080200F190
S31510011F20080354E750F8043C23F003031F446BE7FE
S31510011F303A1F5E46DBF80C3056F8081F242ACB6090
S31510011F40996022D8132A1ED92368CBF80830636802
S31510011F50CBF80C301B2A3BD808340BF1100322683E
S31510011F601A6062685A60A2689A6034465746D94622
S31510011F704AE72146FFF750FB2FE7DCE902133A1F28
S31510011F80CB609960D5E73346E9E721463046FFF73E
S31510011F9043FBEAE7A3688360E368C360242A27D07A
S31510011FA004F1100200F1100311E709EB0501996024
S31510011FB0531B43F001034B6054F8043C03F0010337
S31510011FC02B43404644F8043C00F0F0F826462FE730
S31510011FD0A368CBF81030E368CBF81430242A10D05C
S31510011FE010340BF11803BAE7404600F0DFF804E7A6
S31510011FF0236903616169416104F1180200F1180353
S31510012000E5E62369CBF818306369CBF81C30183430
S315100120100BF12003A3E7324660E721463046FFF76E
S31510012020FBFA074B60E7A168CBF81010E168CBF813
S315100120301410242A06D010340BF118024EE700BFF3
S31510012040480100202269CBF818206269CBF81C20C0
S3151001205018340BF1200241E738B50C46084D844679
S31510012060114620461A4600232B606446FDF7FEFFF3
S31510012070431C00D038BD2B68002BFBD0236038BD24
S31510012080A815002070B50C46084D034600262046BB
S3151001209011461C462E60FDF7B7FF431C00D070BDDC
S315100120A02B68002BFBD0236070BD00BFA815002044
S315100120B02DE9F04186B002FB03F81C4601AB0393F0
S315100120C001230C9E01911746CDF80880CDF8148096
S315100120D00493054608B1436B13B3B6F90C20736E1E
S315100120E0910405D442F4005223F40053B28173666D
S315100120F09B0403D5002006B0BDE8F0813146284681
S3151001210003AA00F0A5F938B1059BA8EB0308B8FBA3
S31510012110F7F006B0BDE8F081204606B0BDE8F081C3
S3151001212000F030F9D9E700BF2DE9F0411D4C86B01A
S31510012130D4F8008001901C4601AB02FB01F7039312
S3151001214001230E461546029705970493B8F1000F21
S3151001215002D0D8F834300BB3B4F90C20636E910465
S3151001216005D442F4005223F40053A28163669B0402
S3151001217003D5002006B0BDE8F0812146404603AAEA
S3151001218000F066F930B1059BFF1AB7FBF6F006B001
S31510012190BDE8F081284606B0BDE8F081404600F062
S315100121A0F1F8D9E710000020704700BF704700BF53
S315100121B000207047024A0349034800F027BB00BFBD
S315100121C038010020311A0110180000200C4B41680B
S315100121D0994210B5044601D0FFF72AFCA168094BB4
S315100121E0994202D02046FFF723FCE168064B99423B
S315100121F004D02046BDE81040FFF71ABC10BD00BF41
S31510012200341400209C14002004150020002070476F
S315100122102DE9F8432A4C2B49DFF8AC90DFF8AC8056
S315100122202B4FC4F83811002504230822294604F13E
S315100122305C00284EE360C4E90055C4E90455A56065
S315100122406566A561FFF7C8F8234B6367082229461F
S3151001225004F1C400C4E90749C4E90987C4E91A5558
S31510012260C4E91E552567C4F8CC50C4F88050E662FF
S31510012270FFF7B2F8194BC4F8DC30294604F16803AC
S31510012280082204F59670C4F88430C4E92298C4E98A
S315100122902476C4E93455C4E93855C4F8D850C4F87D
S315100122A03451C4F8E850FFF797F804F1D003C4E9A4
S315100122B03C98C4E93E76C4F8EC30BDE8F88300BF1B
S315100122C034140020B5210110311C0110591C0110C4
S315100122D0991C0110BD1C0110090001001200020019
S315100122E0F8B5254BD3F838310646002B3CD0234F91
S315100122F0D7E90134013B04D51DE05A1C04F16804E9
S3151001230019D0B4F90C50013B002DF6D11C4BE360EA
S31510012310C4E90155C4E9045565662560A56108221D
S31510012320294604F15C00FFF757F8C4E90C55C4E9D6
S3151001233011552046F8BD3D680DB12F46D8E74FF42B
S31510012340D671304601F0E2FD044680B10423C0E99E
S3151001235000530C302946A0604FF4D0722546FFF782
S315100123603BF83C602F46C3E7FFF752FFBFE70C234C
S3151001237038603360DDE700BF3414002038010020D7
S315100123800100FFFF436B03B17047044B044AD3F8B6
S3151001239038314263002BF7D13AE700BF34140020DD
S315100123A0CD210110704700BF704700BF024A034993
S315100123B0002000F02BBA00BF38010020B121011016
S315100123C0024A0349002000F021BA00BF380100205B
S315100123D00D22011070B504468AB008460D46FEF767
S315100123E08FFF164E626B079001214318CDE90861E4
S315100123F0022006A903910695A16805930490A2B13E
S31510012400B1F90C204B6E900405D442F4005223F41A
S3151001241000538A814B669B040DD403AA204600F013
S3151001242017F840B90A200AB070BD20460191FFF78E
S31510012430A9FF0199E4E74FF0FF30F4E7647E01103C
S31510012440024B01461868FFF7C5BF00BF10000020F8
S315100124509368002B00F0F6802DE9F04FB1F90CC00E
S315100124601CF0080F83B0904681460C4631D00B699B
S315100124707BB31CF00207D8F8006038D00027D4F8D7
S3151001248024B0E169DFF8BCA23D4655452B463A46D4
S3151001249028BF53464846C5B1D847002840F3C880DF
S315100124A0D8F808301B1A07442D1AC8F80830002B23
S315100124B000F0B48055452B46D4F824B0E16928BF05
S315100124C053463A464846002DE6D1D6E900750836F8
S315100124D0DBE72146484602F09FFF002840F0AD8019
S315100124E0B4F90CC0D8F800601CF00207C6D11CF074
S315100124F0010A63D12368A168574618468B46002FF7
S3151001250058D01CF4007F00F0B180B9420A4600F29F
S31510012510DD801CF4906F2FD0216962695D1A02EB80
S31510012520420202EBD2726B1C52103B44934292BF91
S3151001253093469B461A461CF4806F00F0E6801146BE
S31510012540484601F0E3FC002800F0F5802A4621698F
S315100125500190FFF7C5FAA289019B22F4906242F01D
S315100125608002A2815819ABEB0505C4F814B023619A
S31510012570A5602060BB463A4651460192FFF74CF8DA
S31510012580A1682368019AA1EB0B011A443D46A1608B
S3151001259022600027D8F808305B1BAA44C8F8083017
S315100125A0002B3BD02368A168B4F90CC018468B46A2
S315100125B0002FA6D1D6E900A708369EE73846BB46B6
S315100125C03D46002D40D0002845D03A46D4E904C3F3
S315100125D02068A168AA4228BF2A46604504D901EBA2
S315100125E0030A524500F38280934272DCE169D4F802
S315100125F024C05A464846E047B0F1000A18DDB7EB49
S315100126000A070FD00120D8F80830A3EB0A03D344E8
S31510012610A5EB0A05C8F80830002BD2D1002003B06B
S31510012620BDE8F08F21464846FEF7BCFF0028EAD0E8
S31510012630B4F90C3043F04003A3814FF0FF3003B0DF
S31510012640BDE8F08F00207047756833460836002DB7
S31510012650FAD0D3F800B02A460A21584601F0F0FB09
S31510012660002865D00130A0EB0B07AEE722699A422C
S3151001267014D36269BA4211D86FF00043BB4228BF26
S315100126803B46656A93FBF2F3E16902FB03F34846A5
S315100126905246A847051ECBDD7F1B7BE7B94228BFF3
S315100126A039460D4618460A465146FEF7B5FFA1684A
S315100126B02368491B2B44A16023600029ECD12146D4
S315100126C04846FEF76FFF0028E6D0B1E7BB463A460B
S315100126D052E759460192FEF79FFF019AA3689B1A8A
S315100126E0A360236813442360924688E759465246ED
S315100126F0FEF792FF23685344236021464846FEF7AE
S3151001270051FF00283FF47BAF92E74846FFF702FBE3
S31510012710034600287FF426AF21694846FFF75EF885
S31510012720B4F90C300C22C9F8002023F0800381E79C
S315100127306A1C17464AE70C22B4F90C30C9F8002076
S3151001274078E700BF00FCFF7F002301461A461846B2
S3151001275002F0E4BE0EB400B582B003AB816853F843
S31510012760042B019300F074F802B05DF804EB03B08A
S31510012770704700BF0FB400B5074983B004AB0868B2
S3151001278053F8042B8168019300F062F803B05DF8E9
S3151001279004EB04B0704700BF1000002038B5074D98
S315100127A00022044608462A60FDF7AAFD431C00D004
S315100127B038BD2B68002BFBD0236038BDA81500202F
S315100127C038B5074D0022044608462A60FDF710FC6D
S315100127D0431C00D038BD2B68002BFBD0236038BDBD
S315100127E0A815002038B5074D074C2C1BA41005D091
S315100127F0013C55F8043D9847002CF9D1BDE8384005
S3151001280007F070BEC40B0020C00B00202DE9F84361
S315100128100746884616464FF00009D6E90154013D90
S3151001282010D4A389012B08D9B4F90E3001332146EE
S31510012830384602D0C04749EA0009013D6B1C04F134
S315100128406804EED13668002EE7D14846BDE8F88314
S315100128502DE9F04FC3B01C46089191460D930546DC
S315100128600C9003F01DFC026814921046FEF748FD09
S3151001287013901DB16B6B002B01F01B800899B1F9F8
S315100128800C204B6E900405D442F4005223F40053ED
S315100128908A814B669F0401F14381089AB2F90C3083
S315100128A01E0740F1DD801269002A00F0D98003F07D
S315100128B01A030A2B00F0E3800023CDE92633CDE974
S315100128C0153312930A9300240023CDE9103432AA4A
S315100128D025929246CB469BF80030002B00F05F8183
S315100128E05C4604E014F8013F002B00F03C81252BD7
S315100128F0F8D1B4EB0B0540F039812378002B00F0A9
S315100129004E814FF000038DF87730002763780997D1
S3151001291004F1010B4FF0FF390BF1010B9846A8F1A9
S315100129202003582B00F24881DFE813F07B024601A1
S315100129304601760246014601460146014601460117
S315100129403E027002460149024E0246016B025900CF
S315100129505900590059005900590059005900590098
S315100129604601460146014601460146014601460118
S31510012970460146016800C1014601C10146014601F1
S3151001298046014601A60246014601B8004601460126
S31510012990460146014601C900460146014D0646015A
S315100129A046014601460146014601460146014601D8
S315100129B0460198026A00C101C101C10193026A0070
S315100129C04601460186024601E202BA00D102CC0254
S315100129D04601AB024601CB00460146016D06A8F140
S315100129E0300300221BF8018B02EB820203EB420239
S315100129F0A8F13003092BF5D9099290E747F0100792
S31510012A00BD0640F1AA810D9B073323F007031A4631
S31510012A10596852F8083B0D920A460029C0F2AF8157
S31510012A20B9F1000F9DF87740C0F2B08127F080010F
S31510012A30069153EA020140F0A8810121B9F1000F74
S31510012A4040F04B83002940F0E98417F001030B9302
S31510012A5000F0298530238DF8C7300DF1C7056EE0DA
S31510012A60089D0C98294602F0D7FC002841F05880A1
S31510012A70B5F90C3003F01A030A2B7FF41DAF089B2E
S31510012A80B3F90E30002BFFF617AF08990C982346B1
S31510012A904A4643B0BDE8F04F01F0FEB847F01007C3
S31510012AA017F0200200F04A810D9B073323F007032C
S31510012AB019465A6851F8083B0D9100210FE047F06D
S31510012AC0100717F0200200F02F810D9B073323F01A
S31510012AD0070319465A6851F8083B0D910121002444
S31510012AE0B9F1000F8DF8774006DB27F080000690CC
S31510012AF053EA0200A2D0069F012900F0478102295C
S31510012B0000F0F58232AD03F00701DB0843EA4273A8
S31510012B10D208303153EA0206284605F8011DF2D1D2
S31510012B20FB0740F1F282302900F0EF8230230238A0
S31510012B3005F8013C32AB1B1A06970B9305460B9B06
S31510012B404B45B8BF4B46079300230F9314B1079B10
S31510012B5001330793069B13F002033FD0079B023301
S31510012B60079302233AE0B4EB0B0518D0279B2B44AD
S31510012B702793269B0133072BCAE900B5269305DC5B
S31510012B800AF1080A0A9B2B440A93B6E608990C988F
S31510012B9025AA02F007FD30B90DF1C80AF2E7279B05
S31510012BA0002B40F00D87089B9B895B0600F1B887C7
S31510012BB00A9843B0BDE8F08FB8F1000FEFD00023AB
S31510012BC08DF8773001238DF8A08007930B9328ADEC
S31510012BD04FF000090697CDF83C904B46069A279C74
S31510012BE012F084020E9205D1099A0799561A002EEF
S31510012BF000F3FB829DF877208AB1269A0DF17701B1
S31510012C0001320134CAF80010072A4FF00101279446
S31510012C102692CAF8041000F323830AF1080A83B135
S31510012C20269A1EA901320234CAF80010072A4FF05B
S31510012C30020127942692CAF8041000F31F830AF1A1
S31510012C40080A0E9B802B00F0C7810B9BA9EB03068C
S31510012C50002E00F30382069BDE0500F156810B9BC5
S31510012C60CAF804301C44269BCAF800500133072BBE
S31510012C702794269300F362820AF1080A069B5A07E3
S31510012C8005D5099B079A9D1A002D00F30383DDE9EB
S31510012C90092307998A42ACBF9B185B180A93002C2B
S31510012CA040F03882002326930DF1C80A13E60D9BD6
S31510012CB0073323F00703F3E802450D9325F000438C
S31510012CC019931894DDE91801BD4B4FF0FF32CDE988
S31510012CD0104504F0D5FD002840F0F083DDE9180118
S31510012CE0B74B4FF0FF3204F0ADFD002840F0E683FC
S31510012CF0002200232046294604F09AFD002840F0C0
S31510012D0049869DF87740AF4D27F080030693AE4B69
S31510012D10B8F1470FD8BF1D464FF00009032307939B
S31510012D200B93CDF83C9011E70D9951F8043B0D9199
S31510012D3017F0100100F0BA830121D0E60D9951F870
S31510012D40043B0D9117F010017FF4B7AE17F0400256
S31510012D503FF4B3AE0A469BB2AFE60D9AFC0652F8A3
S31510012D60043B0D9206D4780604D543F3C0321146BE
S31510012D701BB252E6DA1711460029BFF651AE5B4275
S31510012D8062EB42022D240121AAE6069F0A2B72F15B
S31510012D90000180F0048530338DF8C7300123069782
S31510012DA00B930DF1C705CAE60D9B53F8042B099237
S31510012DB0002A80F27383099A0D93524209929BF865
S31510012DC0003047F00407A7E55A4612F8018BB8F10F
S31510012DD02A0F00F02F87A8F13003092B98BF4FF067
S31510012DE0000900F2AE8612F8018B09EB890903EB93
S31510012DF04909A8F13003092BF5D949EAE97993462E
S31510012E008DE59BF8003047F0800785E52B238DF87B
S31510012E1077309BF800307FE59BF8003047F00107CB
S31510012E207AE59DF877209BF80030002A7FF474AD7F
S31510012E3020228DF877206FE59BF800306C2B03BFAD
S31510012E409BF8013047F020070BF1010B47F01007F3
S31510012E5062E59BF8003047F040075DE50D9B0022C7
S31510012E608DF8772053F8042B0D9301238DF8A020AC
S31510012E7007930B9328ADABE69BF8003047F0080794
S31510012E804AE50D9C54F8045B00268DF87760002DF9
S31510012E9000F0C883B9F1000FC0F21D854A463146CC
S31510012EA0284600F0CDFF002800F03F86431B0B9308
S31510012EB023EAE3730D94B1469DF87740069707937D
S31510012EC00F9643E69BF8003047F0200724E50D9A4C
S31510012ED052F8043B0D9247F63002ADF878203B4A82
S31510012EE0159247F00207002202214FF07808F6E505
S31510012EF0BD0640F15F830D9B0A9A1B681A60D217B3
S31510012F005A600D9B04330D93E5E4B8F1650F40F358
S31510012F102181DDE910010022002304F07FFC002845
S31510012F2000F0F581269B2A4ACAF8002001330134A4
S31510012F300122072B27942693CAF8042000F3AC84A8
S31510012F400AF1080A1F9B129A934280F2A282139BDE
S31510012F50149A1C44CAE90023269B27940133072B94
S31510012F60269300F353830AF1080A129B5D1E002D66
S31510012F707FF784AE102D269B164F40F3D480DDF8D3
S31510012F803080DDF82090102605E00AF1080A103D80
S31510012F90102D40F3C88001331034072BCAE900768F
S31510012FA0CDE92634F1DD25AA4946404602F0FAFA62
S31510012FB000287FF4F8ADDDE926340DF1C80AE6E7FD
S31510012FC0FFFFEF7FA4800110A0800110C4800110C3
S31510012FD0E080011080A30110099B079A9E1A002E0A
S31510012FE07FF733AE102E269BAF4F24DD5246214676
S31510012FF0AA460C9C089D04E0103E102E02F1080210
S3151001300016DD013310311020072BCDE9263117605B
S315100130105060F1DD25AA2946204602F0C3FA0028A0
S315100130207FF4C1AD103E102EDDE9263132AAE8DC5F
S3151001303055460C46924601333444072BCDE92634C6
S31510013040CAF80070CAF8046000F338840B9BA9EB28
S315100130500306002E0AF1080A7FF7FDAD102E269BF6
S31510013060914F2CDD52462146B2460C9C2E464FF00E
S315100130701009089D06E0AAF1100ABAF1100F02F123
S31510013080080218DD013388481031072BC2E90009FF
S31510013090CDE92631EFDD25AA2946204602F082FA2E
S315100130A000287FF480ADAAF1100ABAF1100FDDE9FC
S315100130B0263132AAE6DC35460C465646924601338F
S315100130C03444072BCDE92634CAF80070CAF80460D7
S315100130D000F3D2810AF1080ABDE50129069F4FF0D6
S315100130E000033FF458AE02291A467FF40BAD15982A
S315100130F032AD03F00F011B09415C05F8011D43EACE
S315100131000273120953EA0201F3D132AB5B1B069724
S315100131100B9314E508990C9825AA02F043FA002896
S315100131203FF4C0AD3FE501332C44072BCAF80070BC
S31510013130CAF80450CDE926347FF79EAD08990C984C
S3151001314025AA02F02FFA00287FF42DAD279C0DF148
S31510013150C80A93E5129B269E012B04F1010406F180
S3151001316001060AF1080840F33E810123072ECDE935
S315100131702664CAF80050CAF8043000F3F682139B8D
S31510013180149A01361C44072EC8E90023CDE926649A
S3151001319000F3F88208F10808129BDDE9100103F12A
S315100131A0FF390022002304F039FB002840F03B814F
S315100131B0013601354C44072ECDE92664C8F8005076
S315100131C0C8F8049000F31D8108F10808169BC8F889
S315100131D0043001361C44072E21ABCDE92664C8F80C
S315100131E00030ABDC08F1080A48E5102E269A2F4F5D
S315100131F028DD51462046CA460C9C1793A946089DC0
S3151001320004E0103E102E01F1080116DD01321030D6
S315100132101023072ACDE926200F604B60F1DD25AA80
S315100132202946204602F0BEF900287FF4BCAC103EB8
S31510013230102EDDE9262032A9E8DC179B4D460446FF
S31510013240D1468A4601323444072ACDE92624CAF8E2
S315100132500070CAF8046000F3DC820AF1080AC9E4B6
S3151001326008990C98179325AA02F09CF900287FF467
S315100132709AAC279C179B0DF1C80AD0E408990C98B3
S3151001328025AA02F08FF900287FF48DAC279C0DF149
S31510013290C80AD6E4102D269B044F25DDDDF83080B3
S315100132A0DDF82090102608E080A3011070A301100C
S315100132B0103D102D0AF1080A16DD01331034072BC3
S315100132C0CAE90076CDE92634F2DD25AA49464046FB
S315100132D002F068F900287FF466AC103D102DDDE987
S315100132E026340DF1C80AE8DC01332C44072BCAE950
S315100132F00075CDE926347FF7CAAC08990C9825AA32
S3151001330002F050F900287FF44EAC279CBFE41F99B8
S31510013310002940F38D820F9F129B9F42A8BF1F4623
S31510013320002F0BDD269B01333C44072BCAE90057BE
S315100133302794269300F3D6830AF1080A0F9E002FCD
S31510013340A8BFF61B002E00F377811F9B129A93429A
S31510013350C0F2A181069AD00700F19D81129A0F99A8
S31510013360D31A561A9E42A8BF1E46002E0EDD269A65
S31510013370CAF8046001320D443444072ACAF80050D1
S315100133802794269200F3BA830AF1080A002EACBFDD
S315100133909D1B1D46002D7FF771AC102D269BAC4F42
S315100133A07FF7C1AEDDF83080DDF82090102605E0FC
S315100133B00AF1080A103D102D7FF7B5AE013310340E
S315100133C0072BCAE90076CDE92634F1DD25AA49464F
S315100133D0404602F0E7F800287FF4E5ABDDE9263434
S315100133E00DF1C80AE6E7069BD9073FF5BEAE0123E4
S315100133F0072ECDE92664CAF80050CAF804307FF7C3
S31510013400E5AE08990C9825AA02F0CCF800287FF4AD
S31510013410CAABDDE926640DF1C808D7E6CDF82C90C4
S3151001342032ADFFF78CBB129B012B7FF7CFAE112B61
S31510013430874F40F39582DDF830A0102507E008F19B
S315100134400808A9F11009B9F1100F40F38982013664
S315100134501034072EC8E90075CDE92664EFDD089909
S3151001346025AA504602F09EF800287FF49CABDDE9B0
S3151001347026640DF1C808E4E708990C9825AA02F00C
S3151001348091F800287FF48FAB279C0DF1C80AFFF73E
S31510013490E2BB069BDD077FF5F1AB58E50D939BF873
S315100134A00030FFF739BA32ADFFF749BB17F04002CA
S315100134B01CBF0A469BB20121FFF711BBDDE91001C2
S315100134C002460B4604F0DCF9002840F07B83B9F183
S315100134D0FF3F28F0200600F02083472E04D1B9F1D2
S315100134E0000F08BF4FF00109DDE9101247F4807093
S315100134F0002A0690C0F2DA8200230E93DDE9103419
